:100000000C94AE030C94CB030C94CB030C943721CB
:100010000C94CB030C94CB030C94CB030C94CB0328
:100020000C94CB030C94CB030C945E1C0C941A1C04
:100030000C945B1D0C94CB030C94CB030C94CB035E
:100040000C94CB030C94CB030C94CB030C94CB03F8
:100050000C94CB030C94371D0C94CB030C94CB0362
:100060000C94CB030C94CB030C94CB030C94CB03D8
:100070000C94CB030C94CB030C94CB030C94CB03C8
:100080000C94CB030C94CB030C94CB030C94CB03B8
:100090000C94CB030C94CB030C94CB030C94CB03A8
:1000A0000C94CB030C94CB030C94CB03E500000021
:1000B000C5000000E4000000C4000000F6000000DD
:1000C000D60000002752144B1A0009001300050047
:1000D000295204281524162117220A002A521D48E5
:1000E0001B00060007001900000000000000294363
:1000F0002C412B4280C034001C0018000F000D0062
:1001000082C112280C2408211122100084C2380058
:10011000370036000B000E000000000000004C46C7
:100120002A4428450000007C000000000000000078
:100130000000E300E200E000E10000000000000039
:10014000E6000000000000000000000000000000C9
:100150000000000000001D011B01060119011C0127
:1001600000004F00520051005000390000004D00C7
:100170004B004E004A0049000000000000004C0007
:100180002A0028000000007C0000000000000000A1
:100190000000E300E200E000E100000000000000D9
:1001A000E600000000000000000000000000000069
:1001B0000000000000001D011B01060119011C01C7
:1001C0000000D000CD00CE00CF0000000000DC0019
:1001D000D900DA00DB000000000000000000D200BF
:1001E000D300D1000000007C0000000000000000EF
:1001F0000000E300E200E000E10000000000000079
:10020000E600000000000000000000000000000008
:100210000000000000000000000045020000000097
:100220000000D500A9004500D400390000000000FE
:100230000000000000000000000000000000A80016
:10024000AE00AD0000002F00240025002600300085
:10025000000033002100220023002E0000003500A2
:100260001E001F00200031000000000000003700C9
:1002700027002D000000007C0000000000000000AE
:100280000000E300E200E000E100000000000000E8
:10029000E600000000000000000000000000000078
:1002A0000000000000002F02240225022602300276
:1002B000000033022102220223022E020000350236
:1002C0001E021F0220023102000000000000260270
:1002D00027022D020000007C00000000000000004A
:1002E0000000E300E200E000E10000000000000088
:1002F000E600000000000000000000000000000018
:10030000000000000000450040004100420046009F
:10031000000044003D003E003F0047000000430055
:100320003A003B003C00480000000000000065006F
:100330002C002B000000007C0000000000000000EA
:100340000000E300E200E000E10000000000000027
:10035000E6000000000000000000000000000000B7
:10036000000000000000640137030A011303350197
:100370000000050131012E012D01307C00002F030A
:100380003003450445024500000000000000D40091
:10039000D500000000000000000000000000000088
:1003A000000000000000000000000000000000004D
:1003B000000000000000000000000000000000003D
:1003C000000000000000430044003E07000042001F
:1003D0000000000000004502450000000000000091
:1003E000430044003E073E00000000000000D4002F
:1003F000D50011010052005200520052005200522A
:10040000005200523E00440043004200005200529D
:1004100000520052005200520000000000003E0056
:100420003E01050300000000000000000000000085
:1004300000003B0037012C01150100000000000006
:10044000D400D50017013E00000000000000170393
:100450003D013D0400520052005200520052005231
:1004600000520052005200520052005200520052FC
:10047000005200520052D5000000000000001A0691
:100480001406D400000007015106520451040E0363
:10049000000004010903090113010B01000006011A
:1004A0001B011901380109060000000000001D01B0
:1004B0001C0116010052005200520052005200521C
:1004C000005200520052005200520052005200529C
:1004D0000052005200520052000000000000005282
:1004E0000052407E0000000011013D011703000092
:1004F000000000003E00D400D50000000000000015
:1005000000000000000000000000000000000000EB
:1005100000001701005200520052005200520052D7
:10052000005200520052005200520052005200523B
:100530000052005200520052000000000000005221
:100540000052005200000000000000000000000007
:10055000000000000000000000000000000000009B
:1005600000000000000000007E0F00D4FFFFFFC766
:100570000000007800000000000000002A2B280086
:100580000000000000000000000000000000002942
:10059000000000002C1E3420212224342627252E82
:1005A000362D3738271E1F202122232425263333BA
:1005B000362E37381F0405060708090A0B0C0D0EE6
:1005C0000F101112131415161718191A1B1C1D2FB2
:1005D0003130232D350405060708090A0B0C0D0ED2
:1005E0000F101112131415161718191A1B1C1D2F92
:1005F0003130354C05010902A10185020901A10034
:1006000005091901290815002501950875018102C0
:100610000501093009311581257F9502750881068C
:1006200009381581257F950175088106050C0A3862
:10063000021581257F950175088106C0C005010955
:1006400080A101850319012AB700150126B700957D
:100650000175108100C0050C0901A1018504190173
:100660002AA002150126A002950175108100C0057F
:10067000010906A1018506050719E029E7150025EE
:10068000019508750181020507190029EF1500255C
:100690000195F07501810205081901290595057577
:1006A000019102950175039101C005010906A1019F
:1006B000050719E029E71500250195087501810254
:1006C0009501750881010507190029FF150026FF0E
:1006D000009506750881000508190129059505751D
:1006E000019102950175039101C009023B000201CD
:1006F00000A0FA0904000001030101000921110111
:1007000000012240000705810308000109040100DF
:10071000010300000009211101000122B6000705B4
:10072000820320000112010002000000085346016C
:10073000000100010200010C0343006F0072006E13
:100740000065000000100366006F006F0073007406
:100750000061006E000000040309040011241FBEA4
:10076000CFEFDAE0DEBFCDBF11E0A0E0B1E0E2EB19
:10077000F6E402C005900D92AA36B107D9F722E03F
:10078000AAE6B1E001C01D92AB39B207E1F70E94C1
:10079000821D0C9410230C940000FC01AC014C5FF2
:1007A0005F4F8FEF91E32191822728E030E087FFB0
:1007B00009C0880F892721503109C9F7E417F507C7
:1007C00091F70895880FF7CFE8EDF0E080818E7FF4
:1007D00080831092E2001092DA001092E100A0EE05
:1007E000B0E08C9181608C9380818F77808319BC7D
:1007F000A7EDB0E08C918E7F8C9380818F7E80837B
:100800001092690208952091E4003091E50095E688
:10081000A9012091EC00822F817020FF06C08091F9
:10082000E80080FF06C080E008952091E80022FDE6
:100830001AC080918E02882389F0853089F08091DA
:10084000EB0085FD0FC02091E4003091E5004217D8
:100850005307F9F29150E1F684E0089582E008959B
:1008600083E0089581E008958091900287FF13C08E
:100870008091E80082FF06C08091E8008B7780932A
:10088000E80004C080918E028111F2CF089580911A
:100890008E028823D9F38091E80080FFF8CF809101
:1008A000E8008E77ECCF982F9093E900242F762FD5
:1008B00050E0891731F07091EC002091ED005091DB
:1008C000F00021FD07C09F5F973071F78093E9002A
:1008D00081E008953091EB003E7F3093EB00309142
:1008E000ED003D7F3093ED003091EB0031603093AF
:1008F000EB007093EC002093ED005093F0002091FA
:10090000EE0027FDE0CF80E00895B0E0A0E0EBE846
:10091000F4E00C945D22C8EDD0E088818F7E88835E
:10092000E7EDF0E080818160808384E082BF81E038
:100930008093690288818E7F888302EE10E0F8013F
:1009400010821092DA0081EEC82ED12CF6011082AE
:1009500088818F77888388818068888388818F7D6C
:10096000888319BC10928E0210928F0210928D0211
:1009700010928C0290EEE92EF12CF70180818B7F92
:10098000808388818160888342E060E080E00E940B
:100990005304F60180818E7F8083F801808181601D
:1009A0008083808188608083F70180818E7F80834F
:1009B000888180618883CDB7DEB7E8E00C94792226
:1009C000FC01809196029091970286179707A0F0FC
:1009D0006115710529F49091E8009E779093E800E5
:1009E00090E06115710551F4911108C08091E80003
:1009F00082FF34C080E00895BC01F2CF80918E0266
:100A00008823C1F18530C1F18091E80083FD30C0B9
:100A10008091E80082FDEACF8091E80080FFE1CF7D
:100A20008091F3002091F200382F6115710519F0C3
:100A30002830310558F091E02830310509F090E078
:100A40002091E8002E772093E800CBCF819180930E
:100A5000F100615071092F5F3F4FE7CF80918E0207
:100A6000882341F0853041F08091E80083FFBECFBC
:100A700081E0089582E0089583E0089580916B02FB
:100A8000089587E797E7909301088093000888E12D
:100A90009AE00FB6F894A895809360000FBE9093EB
:100AA0006000FFCF9C014FB7F89480916302909152
:100AB0006402A0916502B09166024FBF821B930B46
:100AC00008952FB7F8946091630270916402809149
:100AD0006502909166022FBF08952FB7F894809118
:100AE000630290916402A0916502B09166022FBFEB
:100AF0000895209121012223C9F02091670227FF48
:100B000015C0E62FE695E695E695EE31D8F4E80FA8
:100B1000F92FF11D677021E030E001C0220F6A95C6
:100B2000EAF720958281282322830895FC013296DA
:100B300008962191621303C0DF0111971C92E817F8
:100B4000F907B9F70895209121012223C1F02091DE
:100B5000670227FF14C0E62FE695E695E695EE318D
:100B6000F8F4E80FF92FF11D677021E030E001C0C3
:100B7000220F6A95EAF78281822B82830895FC0115
:100B800032962FEF30E04191641751F02F3F19F466
:100B9000411101C0232F3F5F3630A9F72F3F09F4E1
:100BA0000895820F911D27FD9A95FC016283089597
:100BB000A3E0B0E0EEEDF5E00C946322209160023A
:100BC0003091610228173907A1F090936102809358
:100BD0006002E0915E02F0915F02309751F024E0F4
:100BE00029839B838A830680F781E02DCE010196BD
:100BF00009952396E2E00C947F22A3E0B0E0E3E0C5
:100C0000F6E00C94632220915C0230915D0228177B
:100C10003907A1F090935D0280935C02E0915E023F
:100C2000F0915F02309751F023E029839B838A8300
:100C30000680F781E02DCE01019609952396E2E02A
:100C40000C947F220E946D059C019091530280912B
:100C50005402982B21F03093500220934F02909130
:100C6000550280915602982B21F030934E0220932A
:100C70004D02E0915E02F0915F02309749F082E010
:100C8000809351020480F581E02D81E592E0099581
:100C9000089580914C0280FD16C081FD16C082FD32
:100CA00016C080914B028823A1F0883280F428E09E
:100CB000829FC001112468E270E00E948A22862F80
:100CC000672B39F0089582E0089584E0089588E064
:100CD000089581E0089580914C0280FD17C081FD48
:100CE00017C082FD17C020914A022223A9F080E399
:100CF0002034A0F4289F9001112486E03595279593
:100D00008A95E1F7822F232B51F008958CE0089506
:100D100088E1089580E3089588E00895089581E0CA
:100D2000089580E00895F894E82FE295EF70F0E0E0
:100D300031A1282F2F7081E090E001C0880F2A9503
:100D4000EAF7982F9095932391A392A1892B82A3E0
:100D5000789408959091670292FF06C0282F287119
:100D60002830F9F4877F846093FF06C0282F28710C
:100D70002831F1F4877E84612091680220FF06C04B
:100D8000382F38713830D9F4877F816021FF06C051
:100D9000282F28712831D1F4877E816194FD877EC8
:100DA0000895282F24712430F9F68B7F8860DCCFDA
:100DB000282F2471243101F78B7E8861DDCF382FF5
:100DC0003171313019F78E7F8860E0CF282F217183
:100DD000213121F78E7E8861E1CF82389105B9F10A
:100DE000B0F48133910509F47DC048F4893291054E
:100DF00009F46DC08A32910509F47BC008958533EA
:100E0000910509F45FC08933910509F10895833E86
:100E10009105D9F138F4803E910529F1823E910582
:100E200079F10895863E9105D9F1873E910509F43F
:100E30003EC0843E910541F52091680221FF24C007
:100E40008091670284FD19C087EE90E0089520919B
:100E50006702237009F05AC02091680223FF14C072
:100E600089E290E008952091670220FD38C030911A
:100E7000680230FF09C024FF43C090E080E008957D
:100E80002091670222FDF7CF08952091670222FD8D
:100E90003AC03091680230FD39C024FFF5CFEDCF64
:100EA0002091670223FFF0CF24FDE7CFCDCF209123
:100EB000670223FD2EC03091680231FFEECF84EE31
:100EC00090E008952091670225FFDECFC9CF2091E1
:100ED000670225FD21C02091680223FFD5CF89E359
:100EE00090E0D2CF2091670226FFCECF8AE290E039
:100EF00008952091670226FFC7CF81E390E008950F
:100F000083EE90E0089582EE90E0089580EE90E008
:100F1000089586EE90E0089585E390E00895972F78
:100F20007830B8F46630A8F48C30B0F470E026E085
:100F3000929F600D711D1124FB0190E3899FE00DCC
:100F4000F11D1124EE0FFF1FEC53FF4F859194917B
:100F5000089580E090E0089581E0FCCF1F93CF9347
:100F6000DF930E94ED06EC01C11580E5D807F0F58E
:100F7000C11580E4D80708F09CC0C03ED10520F51B
:100F8000CD3CD10508F082C0C83AD10578F4C53A05
:100F9000D10508F073C0C130D10519F1209709F1CE
:100FA000C430D105F0F4D0E0C0E01BC0C33CD10593
:100FB000D0F7C85AD0E0CC0FDD1FCB5DDE4F0990D3
:100FC000D881C02DD4640DC0C11580E2D80708F0C7
:100FD000D1C0C11581E0D80708F05AC0C83ED1057C
:100FE00010F7CE01DF91CF911F910895C03682E5B1
:100FF000D80718F5C03482E5D80708F06BC0C032B6
:1010000082E5D80708F05FC0C11582E5D80708F46B
:1010100097C02C2F2695269580E2289F90011124B9
:101020008C2F8370C1E0D0E002C0CC0FDD1F8A9509
:10103000E2F7C22BD32BDD68D4CFC03A82E5D807C4
:1010400060F4C03882E5D80708F459C0CF71D0E009
:10105000DC2FCC27C46FD06AC4CFC03C82E5D80750
:1010600008F462C0C03E82E5D80708F09CCFDC2FB0
:10107000CC27CC27DF71C06FD06AB3CFC55AD0E080
:10108000CE5DDE4FC881D0E0D064ABCFD065A9CFB4
:101090008D2F0E94AA06182FCE0199270E94ED06D7
:1010A000C12FD0E0DC2FCC27CC27DF71C82BD92B68
:1010B00098CFCE0199270E94ED06CC27DF70C82B70
:1010C000D92BD06A8ECFCF71D0E0DC2FCC27C16F67
:1010D000D06A87CF2C2F26952695277080E2289FEF
:1010E000900111248C2F8370C1E0D0E002C0CC0F9E
:1010F000DD1F8A95E2F7C22BD32BDC6872CF2C2F31
:1011000026952695277080E2289F900111248C2F28
:101110008370C1E0D0E002C0CC0FDD1F8A95E2F7FA
:10112000C22BD32BDA685DCF8C2F8F710E94AA0659
:10113000C82FD0E0DC2FCC27CC27DF71D06251CF75
:101140008C2F8F710E94AA0655E0D695C7955A95A7
:10115000E1F7CF70D0E0DC2FCC27282F30E084FFE0
:1011600005C044E0220F331F4A95E1F7C22BD32B71
:10117000D06937CF8D2F8F710E94AA06182FCE010C
:1011800099270E94ED06C12FD0E0DC2FCC27CC2779
:10119000DF71C82BD92BD2CF80910202811110921E
:1011A0000202089580959091010298239093010284
:1011B00008952091DE019091AD0156E0291302C0FF
:1011C00080E0089530E0529FF001539FF00D11240C
:1011D000E255FE4F7181761306C07081781303C00B
:1011E0007281741304C02F5F3F4F2770E7CF81E0F7
:1011F00008958091DE019091AD01981301C008958A
:101200008F5F8770FACFB0E0A0E0E9E0F9E00C94DE
:101210005C227C01009136021091370280913402E9
:1012200090913502082B192BCFE0D0E0CC24C39449
:10123000D12CBC2EC6010C2E02C0880F991F0A9417
:10124000E2F780239123892B49F4219790F7B12C61
:101250008B2DCDB7DEB7E9E00C947822B7018C2F47
:101260000E948F070E94AE07019779F3F1CFCF93C9
:10127000DF93EC010E940309BE010E948F070E94C8
:10128000AE07DF91CF910895983078F5863068F5F4
:10129000E82FF0E086E0989FE00DF11D11249E2FCD
:1012A000977083E0F695E7958A95E1F7EE0FFF1FBB
:1012B000EE0FFF1FE157FE4F50E040E080E021912C
:1012C00030E0092E02C0369527950A94E2F7217086
:1012D0003327042E01C0220F0A94EAF7822B4F5FB6
:1012E0005F4F4430510559F7089580E008959830D4
:1012F00098F5863088F5E82FF0E086E0989FE00DBD
:10130000F11D11248E2F877041E001C0440F8A9592
:10131000EAF783E0F695E7958A95E1F7EE0FFF1F70
:10132000EE0FFF1FE157FE4F30E020E070E05191DB
:10133000DF011197CB01022E02C0969587950A9482
:10134000E2F7817081958527842385278C932F5F11
:101350003F4F2430310559F7089590933702809319
:101360003602089521E030E002C0220F331F8A9533
:10137000E2F72095309580913602909137028223D2
:1013800093230E94AD0908959091DF0180958923F0
:101390008093DF01282F277091F4282F082E000C4E
:1013A000330B9217130659F09091680292FF07C011
:1013B0008595859585950E94B2091092DF01089563
:1013C00021E030E002C0220F331F8A95E2F78091BE
:1013D000360290913702822B932B0E94AD0908951B
:1013E00090933502809334020895FC0183819481A7
:1013F000892B29F08081918189238F3F51F480E0EE
:101400000895843FE1F717C0883EA8F0813FB9F7FF
:1014100012C0808191810E94370992959F70963009
:1014200099F358F4925F9F70923048F7803F19F01B
:1014300040F7883E20F781E008959A5FF4CF662355
:1014400009F45DC08D3C41F40E946B068195809348
:1014500054020E94220608958E3C19F40E946B06E5
:10146000F6CF8F3C31F40E946B0681958093530236
:10147000F0CF803D19F40E946B06F8CF893D29F426
:101480000E94490680935502E4CF8A3D21F40E94D0
:1014900049068195F7CF8B3D31F40E94490681952D
:1014A00080935602D6CF8C3D19F40E944906F8CF9E
:1014B0009FE2980F983070F4815D990B21E030E045
:1014C00001C0220F8A95EAF780915202822B809305
:1014D0005202BFCF8D3D31F480914C0281608093E8
:1014E0004C02B7CF8E3D21F480914C028260F7CF41
:1014F0008F3D09F0AECF80914C028460F0CF4091D7
:1015000053028D3C59F48091540287FF0DC0109214
:10151000540241110BC010924A0208C08E3C81F463
:101520008091540218169CF3442381F08091550257
:1015300090915602892B09F08CCF10924B0289CFE3
:101540008F3C49F447FFF0CF109253028091540230
:101550008111ECCFE0CF803D19F41416ACF3E4CF49
:1015600090915502893D29F41916F4F6109255020E
:10157000DBCF8A3D19F497FFD7CFF8CF9091560271
:101580008B3D29F497FFD0CF10925602CDCF8C3DE2
:1015900019F41916CCF3C8CF9FE2980F983090F445
:1015A000815D990B21E030E0B90102C0660F771F21
:1015B0008A95E2F7CB01809590915202892380931E
:1015C0005202B2CF8D3D31F480914C028E7F8093D8
:1015D0004C02AACF8E3D21F480914C028D7FF7CF33
:1015E0008F3D09F0A1CF80914C028B7FF0CF9C0101
:1015F0009A9581159F4130F4832F817031FF03C08C
:101600008260089580E008950F931F93CF93DF9336
:101610008B01EA0190918E02943061F58093E9008C
:101620008FEF9091E800815095FD06C095ED9A9559
:10163000F1F700008111F5CF8091E80085FF1AC015
:101640000E940304811111C08091E80085FD06C04D
:101650008091E8008E778093E800F2CFF8018191C5
:101660008F018093F100219779F78091E8008E77C0
:101670008093E800DF91CF911F910F91089543E08F
:1016800050E0BC0182E00E94040B089546E050E067
:10169000BC0182E00E94040B0895CF93DF93EC011C
:1016A00080912101811111C048E050E0BE0181E02C
:1016B0000E94040B80E2FE01ACE6B2E001900D92C4
:1016C0008A95E1F7DF91CF9108958091670287FFB6
:1016D00005C040E282E050E0BE01EACF48E081E090
:1016E000FACFB0E0A0E0E7E7FBE00C945B227C01DE
:1016F0005B016A018091250201E010E08A3010F45C
:101700000AE010E0C1E0D0E0B501C701F60109959B
:10171000811104C021960C171D072CF4CDB7DEB73C
:10172000EAE00C947722CC9F9001CD9F300D300DD4
:10173000112490E080E045E34A95F1F7000001961E
:1017400082179307C1F7E0CF80910F02811110C07B
:101750008091D80080618093D8008AE18A95F1F762
:1017600000C08091D90080FF0AC081E080930F0201
:1017700081E090910F02913009F080E0089582E0BD
:1017800080930F020E94E40310928E02F1CF0E9418
:10179000A40B882359F0E0915E02F0915F0230972C
:1017A00029F00190F081E02D0995089580E00895D9
:1017B00080935802682F8CE090E00E94C622089522
:1017C00020915702082E000C990B820F911D27FDC6
:1017D0009A9563E070E00E948A2287FD11C0809391
:1017E0005702E09157020E2E000CFF0BE959FE4FF5
:1017F0006081609358028CE090E00E94C6220895B8
:101800008D5FEDCF8091010290910002892B809332
:101810006C01909102029923A1F0892B80936C01B5
:10182000809121018823E1F18091670287FF38C010
:101830008EE1EEE6F1E090E08150A0F591110E947A
:10184000CC0840E250E060EE71E08CE691E00E944E
:10185000FA22892B21F180E2ECE6F1E0A0EEB1E082
:1018600001900D928A95E1F7E0915E02F0915F029E
:101870003097A9F080912101882359F08091670267
:1018800087FF07C080916C0180936D0186E0809393
:101890006C010280F381E02D8CE691E009950895BA
:1018A00086E0C7CF2191222339F29F5FC5CF8823DD
:1018B00041F08095909100028923809300020E945C
:1018C000020C0895882339F090910002982B909390
:1018D00000020E94020C0895882321F00E94D20881
:1018E0000E94020C0895882339F090910102982BF0
:1018F000909301020E94020C0895882399F19CEFB5
:10190000980F913A40F4682F8CE691E00E94790597
:101910000E94020C089590E2980F983050F487705E
:1019200091E001C0990F8A95EAF7892F0E94D208A9
:10193000EFCF9BE5980F933028F490E080E00E9471
:10194000FD05089598E5980F9B3128F490E080E01C
:101950000E94D805089593E3980F933118F460E03E
:101960000E941F0A0895CF93C82F8823D9F18CEFC6
:101970008C0F813AC8F580912101882311F1809163
:10198000670287FF1EC0EC2FE695E695E695F0E02E
:10199000E459FE4F828190E04C2F477021E030E007
:1019A00002C0220F331F4A95E2F782239323892B2B
:1019B00091F06C2F8CE691E00E9479050E94020C58
:1019C0000AC0EEE6F1E084E791E02191C21789F3C5
:1019D0008E179F07D1F76C2F8CE691E00E94A3052C
:1019E0000E94020CCF91089580E28C0F883068F439
:1019F000C77021E030E001C0220FCA95EAF780915C
:101A00000102822B80930102EBCFEBE5EC0FE33078
:101A100040F4F0E0EE5DFE4F808190E00E94FD0515
:101A2000E1CFE8E5EC0FEB3150F4F0E0EE0FFF1FF3
:101A3000EB5DFE4F808191810E94D805D3CF83E377
:101A40008C0F833178F661E08C2F0E941F0ACACF79
:101A50001F93CF93DF93182FD0E0C0E0893311F4A8
:101A6000C0E5D0E0812F0E94B30C209739F4812F7C
:101A70000E947D0CDF91CF911F9108958FE99FE027
:101A80000197F1F700C000002197EFCF0F931F934C
:101A9000CF93DF93C62FD42F022FFC01828188239E
:101AA000A9F060939A020E946D0590939902809329
:101AB0009802C77081E001C0880FCA95EAF70E94BA
:101AC000730CDF91CF911F910F91089580919A022D
:101AD000681332C080919802909199020E94520539
:101AE000883C910548F510E21D0FCD17B9F080E252
:101AF0008C0F883040F4C77081E001C0880FCA9510
:101B0000EAF70E946C0C183048F481E09D2F977022
:101B100001C0880F9A95EAF70E94730C802F0E94EB
:101B2000280D183070F6D77081E001C0880FDA9563
:101B3000EAF70E946C0CC5CFC77081E001C0880F26
:101B4000CA95EAF7F6CFB0E0A0E0E9EAFDE00C9430
:101B50005E22E82FF0E0EC58FA4FD490282F26951B
:101B60002695269530E0F901EC59FA4F04918770DB
:101B700010E0082E02C0159507950A94E2F701704F
:101B80001127F901EC5AFA4FE490F12C082E02C00B
:101B9000F594E7940A94E2F791E0E922FF24F90131
:101BA000EC5BFA4FC491D0E002C0D595C7958A95F9
:101BB000E2F7C170DD270115110519F081EE0E94D1
:101BC000B30CE114F10419F086EE0E94B30C8D2DD4
:101BD0000E94280DE114F10419F086EE0E947D0C9C
:101BE0000115110519F081EE0E947D0CCD2B19F025
:101BF0008CE20E94280DCDB7DEB7E7E00C947A2284
:101C000090915802923071F48A3050F490E0099625
:101C10006AE070E00E948A22875A0E94280D089587
:101C20008650FBCF96EF980F963020F0805D0E9493
:101C3000A30D0895895AFBCF8F929F92AF92BF92C6
:101C4000EF92FF920F931F93CF93DF934B015C01B1
:101C5000D09158028CE1E82EF12C07E010E021E051
:101C6000D501C4010E2C04C0B695A795979587950C
:101C70000A94D2F7C82FCF70222339F0D43051F410
:101C8000CA3040F080E00E94000E8C2F0E94000EAF
:101C900020E005C0C111F9CF04301105B4F30150A3
:101CA000110984E0E81AF1080F3F1007C9F6DF9127
:101CB000CF911F910F91FF90EF90BF90AF909F90A9
:101CC0008F900895CF92DF92EF92FF920F931F9320
:101CD000CF938C017B016C0180EEC81AD108C8013A
:101CE0000E94F70AC82F98E0C916D104D0F40E94C8
:101CF000730C802F0E94B30CE114F104A9F4802F1F
:101D00000E947D0C88E0C816D104C0F48C2F0E947C
:101D10006C0CCF911F910F91FF90EF90DF90CF90BF
:101D200008950E94620CE5CF8FE99FE00197F1F7DB
:101D300000C0000091E0E91AF108DECF8C2F0E946C
:101D4000570CE7CF9091680292FB222720F92817C1
:101D500079F080FB92F9909368026091670270912C
:101D6000680284E090E00E94E42282E00E94C409BC
:101D700008951092010280912101EEE6F1E088239E
:101D800029F18091670287FF21C08EE1DF011D925A
:101D90008A95E9F790E080E00E94FD0590E080E000
:101DA0000E94D805109200020E94020C86E0E1E534
:101DB000F2E0DF011D928A95E9F710924A02109233
:101DC0004B0210924C020E942206089586E0DECF5C
:101DD000AAE2B0E0EEEEFEE00C94622280E992E02E
:101DE0002091F100FC012193CF01F2E088399F0797
:101DF000B9F780919102833009F470C0B8F4813052
:101E000009F447C0823009F4B1C08091E80083FF33
:101E10007EC280919002909191029A3008F077C230
:101E2000E92FF0E0EE5EFC4D0C949E228A3009F41E
:101E30008CC08B3009F46FC0893039F780919002E3
:101E4000813219F780919402909195020297E8F6F9
:101E50008091E800877F8093E8008091E80082FF0E
:101E600038C09091F3008091F200029731F4809194
:101E7000F100813011F0863021F48091F1008093DF
:101E80006B028091E8008B778093E8000E94340415
:101E9000BCCF80919002813A09F0B7CF8091E800E1
:101EA000877F8093E8008091940290919502892B1E
:101EB00061F460E28CE692E070E00E94E0048091C0
:101EC000E8008B778093E800A0CF60E090E080E0AE
:101ED000F3CF80918E028111C0CF97CF8091900275
:101EE000813A09F092CF8091940290919502892BCA
:101EF00009F08BCF8091E800877F8093E800809184
:101F0000E80080FFFCCF809121018093F100809157
:101F1000E8008E77B9CF80919002813209F075CFB9
:101F20008091940290919502892B09F06ECF809157
:101F3000E800877F8093E8000E9434048091920239
:101F4000809321010E94B90E60CF8091900281326E
:101F500009F05BCF8091E800877F8093E8000E94C2
:101F600034048091930280936A024FCF8091900253
:101F7000813A09F04ACF8091E800877F8093E8009A
:101F80008091E80080FFFCCF80916A02BECF80384C
:101F900099F0823809F0BBC1809194028F7087302C
:101FA00008F0B5C18093E9008091EB0085FB88279C
:101FB00080F91092E90006C080918C0290918D0208
:101FC000911182609091E800977F9093E800809350
:101FD000F1001092F1008091E8008E7794C188237F
:101FE00009F482C1823009F092C18091920281117C
:101FF00085C1809194028F702FEF280F263008F052
:1020000086C18093E9002091EB0020FF77C19330D7
:1020100031F48091EB0080628093EB006FC190916E
:10202000EB0090619093EB0021E030E001C0220FC3
:102030008A95EAF72093EA001092EA008091EB007B
:102040008860EACF811163C1109192021F7780915D
:10205000E3008078812B8093E3008091E800877F04
:102060008093E8000E9434048091E80080FFFCCF58
:102070008091E30080688093E30082E0111183E0A7
:1020800080938E0244C18058823008F040C1809114
:102090009202909193028C3D23E09207A1F583E098
:1020A0008A838AE289834FB7F894DE01139620E091
:1020B0003EE051E2E32FF0E050935700E49120FF1F
:1020C00003C0E295EF703F5FEF708E2F90E0EA3033
:1020D000C0F0C7968D939D932F5F243159F74FBF62
:1020E0008091E800877F8093E8006AE270E0CE018B
:1020F00001960E94E0048091E8008B778093E800CD
:1021000006C1C096E7CF4091940250919502292FC5
:1021100033272330310509F444C078F521303105E7
:1021200009F46FC08BE390E0EAEEF6E0223031056F
:1021300009F0EDC02091E800277F2093E80020916E
:102140009602309197028217930708F49C0140E0B1
:102150002115310509F064C0411162C08091E80089
:1021600082FDC9CF80918E02882329F2853019F231
:102170008091E80083FFF2CFBECF21323105A9F173
:102180002232310509F0C3C04115510509F443C09D
:102190004130510509F0BBC086EB90E0E4EFF5E07B
:1021A000C9CF992781309105C1F0009759F0029766
:1021B00009F0ADC0E7E3F7E0E4918E2F90E0E7E3AC
:1021C000F7E007C0E7E5F7E0E4918E2F90E0E7E560
:1021D000F7E0009709F49BC0ADCFE5E4F7E0E491A8
:1021E0008E2F90E0E5E4F7E0F4CF4115510571F052
:1021F0004130510509F08BC089E090E0E5E1F7E05E
:1022000099CF82E190E0E5E2F7E094CF89E090E0B9
:10221000ECEFF6E08FCF80E490E0EAEAF6E08ACFD8
:1022200080918E02882309F466CF853009F463CF4C
:102230008091E80083FD5FCF8091E80082FD8ECF22
:102240008091E80080FF84CF9091F3008091F200AC
:102250002115310519F08830910550F041E00897BB
:1022600009F040E08091E8008E778093E80070CF1D
:1022700044914093F1003196215031090196E8CF05
:10228000803809F044C08091E800877F8093E8009F
:1022900080918F028093F1009ECE811138C0109101
:1022A00092021230A0F58091E800877F8093E800C9
:1022B00010938F020E943404112311F084E005C0B2
:1022C0008091E30087FDFACF81E080938E0242E0A7
:1022D00061EC81E00E94530442E261EC82E00E94E2
:1022E000530480918E0213C080919202813079F460
:1022F00081E0933009F080E080938D021092E90034
:102300008091E800877F8093E8000E9434048091E8
:10231000E80083FF0AC08091E800877F8093E8008F
:102320008091EB0080628093EB00AA96E3E00C942E
:102330007E220E94B90E2FEF84E39CE02150804062
:102340009040E1F700C0000088E19AE00FB6F894F1
:10235000A895809360000FBE90936000FFCFA5E02A
:10236000B0E0E5EBF1E10C9459227C01FC018381A2
:102370009481892B31F08081918189238F3F09F0ED
:1023800001C52596ECE00C9475220E940309182FD4
:10239000682F89819A810E94770969817A81812FCA
:1023A0000E948F078C01F70182810034FEE71F072E
:1023B00089F0882309F44BC0809101028272F801F0
:1023C000E053FC47E830F10508F041C0E45EFC4D05
:1023D0000C949E22882399F080915802811121C08B
:1023E00083EE0E94B30C82EE0E94B30C86E10E9441
:1023F000280D82EE0E947D0C83EE0E947D0C809160
:10240000DF01877009F4BDCFF7018281882309F4C9
:10241000B8CF8091680282FFB4CF82E00E94C409E5
:10242000B0CF80EE0E94B30C8EE00E94280D80EEAB
:102430000E947D0C86E10E94280DE1CF811104C02D
:1024400081E003C08111FCCF8FEF0E94E00B17FFEA
:10245000A2C0F7018281882309F49DC00115F0EC28
:102460001F0708F4B1C08091000290910102892BEE
:1024700090910202892B8272DD24D394811101C0D4
:10248000D12C0E94C70B86958170F8018D1529F01B
:10249000EE0FEF2FEE1FFF0BF195EF77FF27EE0FFB
:1024A000FF1FEE0FFF1FE455FF4F85909590A590FD
:1024B000B4908114910421E1A206B10408F06BC02C
:1024C0008114910431E0A306B10428F080915802F0
:1024D000823009F460C00E94C70B80938D019091F7
:1024E0005802913029F481FF03C089E30E94280D2E
:1024F0008091010280938C011092010210920002DF
:1025000080915802823009F483C008F060C08823AB
:1025100009F473C0813009F474C0EFE3FCE931972A
:10252000F1F700C0000081149104F1E0AF06B1049E
:1025300008F487C080915802811183C021E0A21A5B
:10254000B108C501B4014AE09695879577956795DE
:102550004A95D1F778528F4F9F4F0E941C0E33E05F
:102560009322AA24BB24C501B40174528F4F9F4FFC
:102570000E941C0E80915802823009F480C008F03D
:1025800063C0882309F46CC0813009F46DC0809168
:102590008C0180930102F801E851FC47E730F10516
:1025A00008F096C0EC5DFC4D0C949E2280E00E94E9
:1025B000D80B4DCF81E0FBCF82E0F9CF83E0F7CF9E
:1025C00084E0F5CF85E0F3CFF801FF7368CF843066
:1025D00099F1853009F0A1CF70E060E08BE191E0E6
:1025E0000E94620E70E060E085E290E00E94620E60
:1025F00070E060E088E290E008C082EE0E94B30CD8
:102600008CCF70E060E088E193E00E94620E85CF9D
:1026100080918D0180FD03C083E50E94280D82EE2C
:102620000E94B30C8FE39CE90197F1F700C0000012
:1026300087E50E94280D71CF86EE0E94280D88E163
:10264000F8CFC501B40194CF843011F1853009F081
:102650009ECF70E060E088E290E00E94620E97CF2B
:1026600082EE0E947D0C93CF8CE20E94280D809117
:102670008D0181FF8CCF89E30E94280D88CF82EEE7
:102680000E947D0C80918D0180FD81CF83E5F4CF88
:1026900088E2F2CF26E241EE61EEC7010E94460DCC
:1026A000AECE27E245EE65EEF8CF26E241EE60EED3
:1026B000F4CF27E245EE64EEF0CF26E241EE62EE83
:1026C000ECCF27E245EE66EEE8CF28E241E0EBCF23
:1026D000F7018281882309F47CC310929A02C80111
:1026E0009057839708F05FC384E090E00E94C02277
:1026F0009093680280936702F801E150F047E2325C
:10270000F10520F4E55DFC4D0C949E22809167025A
:1027100081608093670295C0809168028860809391
:1027200068028FC0809167028260F3CF8091670258
:102730008460EFCF809167028860EBCF8091680260
:102740008160EDCF809168028260E9CF809167025D
:102750008061DFCF809167028062DBCF809167026A
:102760008064D7CF0E94B90E809167028068D1CF74
:10277000809167028C60CDCF809168028360CFCF5B
:10278000809167028E7FC5CF80916802877FC7CF17
:10279000809167028D7FBDCF809167028B7FB9CF1B
:1027A00080916702877FB5CF809168028E7FB7CF17
:1027B000809168028D7FB3CF809167028F7EA9CF11
:1027C000809167028F7DA5CF809167028F7BA1CF1B
:1027D0000E94B90E809167028F779BCF809167022C
:1027E000837F97CF809168028C7F99CF8091670219
:1027F00082FB992790F921E0922790FB82F990FBC8
:1028000083F987CF80916802982F909591708E7F81
:10281000892B90FB81F983CF90916702892F8F7B61
:1028200096FF806476CF0E94B90E90916702892F3F
:1028300097FB87F980586DCF61E08EE090E00E94B1
:10284000C622609167027091680284E090E00E9465
:10285000E4220E94B90ED3CD60E0EFCF90916702E1
:10286000892F8F7E94FF806154CF90916702892FCA
:102870008E7F90FF81604DCF90916802892F877F76
:1028800093FF88604CCF0E94B90EFFEF24E33CE039
:10289000F15020403040E1F700C000000E944105A7
:1028A0006FEF7FEF90E080E00E94E4220E94991198
:1028B0008091680282FB882780F991E089270E9435
:1028C000A20EF701828100811181882309F449C099
:1028D000C8010E940309D82E682FC8010E947709F9
:1028E000B8018D2D0E948F070E94AE078C01882EA3
:1028F000F701D280B580B2943FE0B3228091DF012E
:102900008770F1F0AD2CDD20E1F0812F807F8034E5
:1029100051F080E2800F883098F0B11004C0812F10
:10292000807E803269F08091680282FF09C082E077
:102930000E94C4098091DF018770AA24A3948111A9
:10294000A12C912E92942FE09222FBE0F91508F42D
:1029500074C0E92DF0E0E35BFC4D0C949E2280E016
:10296000AECFC8010E944409D82EBACF212F2F70B4
:10297000C22E107F19F0C29490EFC922DD20B9F069
:10298000CC2069F080E2800F883010F0811009C0FF
:1029900080910102C82AC09201020E94020C802F7D
:1029A0004AC080910002C82AC0920002F6CF802F50
:1029B0000E947D0CCC2009F440C0005E083010F06D
:1029C000811004C08C2D0E94D20806C0C094809152
:1029D0000002C822C09200020E94020C2EC0312FB9
:1029E0003F70C32E107F103219F0C29480EFC822BE
:1029F000882089F081E0881609F47CC0DD2009F484
:102A000086C0BB2009F47CC0F701858180FFC7CF59
:102A10008F70858375C02091680222FD43C0DD2040
:102A2000D9F1CC2039F080910102C82AC09201026C
:102A30000E94020C80E00E94B30CE92DE850FF0BCD
:102A4000349710F40E94C70BAA20A9F08091DF01EF
:102A500080FD11C0F70112828595859585950E94AC
:102A6000E009C7010E94AF118091DF01859585952E
:102A700085950E94B20985E0F701DE01119601906B
:102A80000D928A95E1F709811A81C8010E944409D3
:102A9000B8010E948F0775CC80E00E947D0CCC208D
:102AA00061F290CFDD20A1F090910202892F8C2954
:102AB000B11003C00E94730CC0CFE1E0BE12FACF88
:102AC00022FFBBCF891709F4B8CF80930202B5CF9C
:102AD000B11006C00E94CC088C2D0E946C0CADCFAA
:102AE000F1E0BF1609F4A9CF8C2D0E946C0C0E9456
:102AF000CC08A3CFDD2031F025E02B1508F49DCFC5
:102B00008C2DD8CF34E03B1508F497CFE5CFBB2010
:102B100019F3F9E38F122FC12FEF37EE83E0215025
:102B200030408040E1F700C0000025C1812F86952C
:102B30008695837061F0813009F07FCFC801937072
:102B4000D11002C080E090E00E94D80576CFC80185
:102B50009370D11002C080E090E00E94FD056DCF1F
:102B60006D2D802F0E941F0A68CF812F837009F07E
:102B70003FC0D11062CF402F429546954770440F19
:102B8000440F802F8F7090E0042E02C0880F991F91
:102B90000A94E2F730E020E004FF09C02FE030E0C3
:102BA00002C0220F331F4A95E2F720953095169503
:102BB00016951370123099F078F4409134025091C8
:102BC0003502113039F0822B932B842395230E94F8
:102BD000F00933CF842B952B822B932BF8CF822BAC
:102BE000932B209134023091350282279327EFCF27
:102BF0008695DD2011F0812F8170882309F41DCF87
:102C0000402F429546954770440F440F802F8F7098
:102C100090E0042E02C0880F991F0A94E2F730E07A
:102C200020E004FF09C02FE030E002C0220F331F74
:102C30004A95E2F720953095169516951370123047
:102C400099F078F44091360250913702113039F002
:102C5000822B932B842395230E94AD09EECE842BE7
:102C6000952B822B932BF8CF822B932B209136021E
:102C70003091370282279327EFCF1F70DD2029F094
:102C8000812F0E94E009802F15CF802F0E946C0CAD
:102C9000812F0E94B209D1CE802F92EF891699F12F
:102CA000981570F0E0EF8E16D1F0F1EF8F1691F0DD
:102CB000DD2009F45BC0B11072CE812F8F7127C067
:102CC00023EF821639F134EF8312F2CF809168023C
:102CD00082FD2EC0812F8F71DD20D9F218C0DD203A
:102CE00069F084E08B1508F4A8CE1F7181E090E0B4
:102CF00002C0880F991F1A95E2F7B8CF95E09B158F
:102D000008F49BCEF2CF812F8F71D110C2CF0E94D9
:102D1000E00993CE90E080E0DD2009F49DCF1F71A3
:102D200081E090E002C0880F991F1A95E2F794CFD6
:102D3000DD2089F01F71812F0E94E00980916802D7
:102D400082FF07C0E8E01E9FC001112483608093CA
:102D5000DF01812FDCCF81E00E94C409F1E0FB1587
:102D600008F06BCE82E00E94C40967CEBB2039F028
:102D7000893309F4D1CE802F0E947D0C5ECE812F45
:102D80008F7187CF85E0DE01119601900D928A95B3
:102D9000E1F7F701228189819A812111F6CA0E9407
:102DA0004409182FFACA0631FCE71F0709F580917C
:102DB00001028A7A91E009F490E090938E0169E231
:102DC000811165E38CE691E00E94A3050E94020C4C
:102DD00016CB06312CE7120709F073CD80918E01D6
:102DE00069E2811165E38CE691E00E947905EECFFE
:102DF00003303CE7130709F453CD50F401159CE769
:102E0000190709F440CD01301C4709F44FCD59CDC5
:102E10000B35FCE71F0709F4A2CD0C352CE7120790
:102E200009F446CD0A351C4709F04BCD81E047CD6A
:102E30001F93CF93DF938091AC01807F09F04BC04B
:102E40008091A901882309F446C08091DE01C091D8
:102E5000AD014091A7015091A8016091AA01709124
:102E6000AB01D42FD52316E0C817A9F190E0611566
:102E70007105A9F1DF3F99F1189FF001199FF00D3D
:102E80001124DF01A255BE4F11962C9111972513E5
:102E900026C02C91241323C012962C911297211135
:102EA0001EC013962D913C91261B370B283C3105F3
:102EB000B0F48091AC018F7080618093AC01ED54CF
:102EC000FE4F80818F708061808387EA91E00E944D
:102ED000AF110E94F908DF91CF911F9108950196DB
:102EE0008770C2CFA1E1B0E0E8E7F7E10C94592286
:102EF0008C0185E0F801DE011D9601900D928A9506
:102F0000E1F7D8011296EC90129787EA882E81E0BB
:102F1000982E4091AA015091AB014115510509F439
:102F200040C19091A7012091A801892F82238F3F52
:102F300009F437C1DC901196CC9011971396AD909F
:102F4000BC901497F090A901F501E41BF50BFF204C
:102F500009F4FBC08091AC01382F307FE83CF105CB
:102F600008F0C7C0311187C0FE2C2C1115C09D116F
:102F700013C0E11011C08F7080618093AC01C40157
:102F80000E94AF118091AC01D80115968C938F2DC2
:102F90006196ECE00C947522A114B104E1F08D2D42
:102FA0008C218F3FC1F081E08E2580FF16C04E2D11
:102FB0006C2D8D2D0E94D908882379F087EA91E045
:102FC0000E94AF1186E0E7EAF1E0DF011D928A95E9
:102FD000E9F7F12CDCCF80E0E8CFA114B10449F18E
:102FE0008D2D8C218F3F29F181E08E25B82FB17076
:102FF000BB2E80FF37C04E2D6C2D8D2D0E94D90821
:10300000A82E81112FC0DD86CE868D859E850E94DB
:103010003709292F22952F70243068F49F702230B1
:1030200098F09923A9F0F8019581907F89F4FA2C02
:10303000AECF80E0DBCF2A5F2F70223068F0C8016E
:103040000E94AF11AB2CF3CF992311F0882379F3B1
:10305000805E883060F3F3CF803F48F3815F833038
:1030600070F7E5CFEE2009F492CF8091AC0181603A
:103070008093AC01AECF2C1112C09D1110C0E11095
:103080000EC015968C93C8010E94AF1186E0F8011E
:10309000A7EAB1E001900D928A95E1F778CFC801D7
:1030A0000E94F509882309F1EE20F9F08091AC0126
:1030B000803270F02091A7013091A80138872F83CA
:1030C0001986BB86AA868C87CE0107960E94AF110F
:1030D00086E0F801A7EAB1E001900D928A95E1F748
:1030E0000E941817FF24F39452CFC8010E94AF1119
:1030F000F9CF332309F462CF2C110FC09D110DC0FD
:10310000E1100BC0F8018583C8010E94AF1186E071
:10311000D4011D928A95E9F73ACFC8010E94F509BA
:10312000882319F3EE2009F38091AC01803280F2FC
:103130002091A7013091A8013A8329831B82BD8287
:10314000AC828E83CE010196C1CFE83CF105F8F642
:10315000FE2CEE2051F22C1116C09D1114C080914E
:10316000AC0180FD93CF982F907F09F48FCFF801A9
:103170008583903F09F487CF982F907F905F8F7061
:10318000892B858380CFC8010E94F5098111A0CFCA
:103190008091AC0181608093AC01C8010E94AF11A5
:1031A000F6CEEE2009F4A1CFC8010E94F509F82E51
:1031B000882309F49ACF86E0F801A7EAB1E00190EC
:1031C0000D928A95E1F78091A7019091A8010E9444
:1031D00037090E941817DBCEA7E1B0E0E2EFF8E173
:1031E0000C9462224B8B5C8B6D8B7E8B8F8B611171
:1031F000109200021A8A198A85E0FE017396DE0198
:103200001D9601900D928A95E1F786E0FE013D96AC
:10321000DE01179601900D928A95E1F7CE0107968F
:103220000E947217882359F016E08091DE01909178
:10323000AD01891343C06796E3E00C947E2286E0DB
:10324000FE013796DE01119601900D928A95E1F705
:103250008A859B85892B41F38F81988589238F3FB0
:1032600019F32091AD0130E0C901019687709927CB
:103270004091DE014817190671F40E94B90E1092B0
:10328000AD011092DE0186E0E7EAF1E0DF011D9278
:103290008A95E9F7C9CF96E0929FD001939FB00D30
:1032A0001124A255BE4FFE01319601900D929A95C0
:1032B000E1F78093AD010E94F908B6CF819FC0016C
:1032C000112482559E4F0E947217882309F4B3CFB0
:1032D0008091DE0190E00196877099278093DE014E
:1032E000A4CFA5E0B0E0E7E7F9E10C9461220E94E9
:1032F0006D058C0180910302909104028017910763
:10330000A1F08FEF89838A831B820E946D05816003
:10331000782F9D838C8349815A816B818D810E9496
:10332000EC1810930402009303022596E4E00C9439
:103330007D22A4E0B0E0EFE9F9E10C946122409134
:1033400021025091220260912302709124022FB732
:10335000F8948091630290916402A0916502B0910B
:1033600066022FBF841B950BA60BB70B11E08436AA
:103370009105A105B10590F10E94A40B882399F154
:103380000E9461056E5F7F4F8F4F9F4F69837A83E5
:103390008B839C838091110190911201885E9D4FD7
:1033A0004091100150E04530510510F044E050E0EC
:1033B000BE016F5F7F4F0E94072382E090E00E9472
:1033C000DD21182F882351F00E94610560932102AE
:1033D000709322028093230290932402812F2496DB
:1033E000E4E00C947D220E94610500912602109178
:1033F00027022091280230912902600F711F821F3D
:10340000931FC0CFEF92FF921F93CF93DF9300D013
:1034100000D00F92CDB7DEB77B0190E080E00E9434
:10342000DD21182F882309F487C04091030150E063
:103430004115510511F041E050E060910401709197
:103440000501685E7D4FCE0105960E9407234091DD
:1034500014025091150260911602709117022FB755
:10346000F8948091630290916402A0916502B091FA
:1034700066022FBF841B950BA60BB70B84369105F4
:10348000A105B10540F489E192E00E94CD039D8140
:10349000891709F451C081E090E00E94DD2181117B
:1034A0001AC010E08091100290911102A0911202B6
:1034B000B0911302F70180839183A283B383812F9C
:1034C0000F900F900F900F900F90DF91CF911F9161
:1034D000FF90EF90089540910B0150E04530510569
:1034E00010F044E050E060910C0170910D01685EB5
:1034F0007D4FCE0101960E94072389E192E00E9450
:10350000CD039D818913CDCF0E9461056093140284
:1035100070931502809316029093170289819A8105
:10352000AB81BC818093100290931102A093120290
:10353000B093130211E0B6CF8091190290911A0254
:10354000A0911B02B0911C0289839A83AB83BC8338
:103550001111E4CFA7CFACE0B0E0E1EBFAE10C94BD
:1035600058228E010F5F1F4F88E0D8011D928A9567
:10357000E9F78DE5C82E81E0D82EF12CE12CAA24A4
:10358000A394B12C27E6822E21E0922EF6018191A0
:103590006F018F3F09F442C0F894E82FE295EF7075
:1035A000F0E021A18F70A50102C0440F551F8A953C
:1035B000E2F7CA01922F982B91A392A180958923BB
:1035C00082A3789400C0E1E6F1E0712C31E0219112
:1035D0002F3F09F46BC0A22FA295AF70B0E0909678
:1035E0008C9190E02F7002C0959587952A95E2F70F
:1035F00080FD5CC0832F782A330F8E169F0639F723
:10360000F601319780818F3F11F00E94930650EAB6
:103610005A95F1F7F801EE0DFF1D70828FEFE81A51
:10362000F80AA4E0EA16F10409F0B0CF48E050E04F
:10363000B8018AE292E00E94FA22009741F028E065
:10364000F801AAE2B2E001900D922A95E1F700910B
:103650003302892B69F181E0809307020E946D0596
:1036600090930602809305028091050290910602D4
:103670000E945205059700F110E0085C1D4F44E0E0
:1036800050E06AE272E0C8010E94FA22B12C892B54
:1036900051F084E0EAE2F2E0D80101900D928A95BF
:1036A000E1F7BB24B3941092070207C080E0A3CFD8
:1036B000809107028111D8CFB12C0E94A40BF82E63
:1036C000E0913302882309F472C019861A861B869A
:1036D0001C860E2F10E0085C1D4F809125028A3059
:1036E00088F542E05AE1BE01675F7F4FC8010E9442
:1036F000710B882309F44AC049E959E1BE01675FAB
:103700007F4FC8010E94710B882309F43FC01092BB
:1037100025028091320290E044E050E0BE01675FF4
:103720007F4F885C9D4F0E94FA2221E020930E0279
:10373000892BF1F4F12C1F2D812F8B292C96EDE094
:103740000C94742280910802909109020E94520503
:10375000843F914030F680910E02882359F3FE0198
:10376000399684E0DF011D928A95E9F710920E02E6
:10377000E0913202F0E0E85CFD4F89859A85AB85E7
:10378000BC8580839183A283B383D5CF80912502AA
:103790008F3F31F08F5F809325028A3008F4B9CFD4
:1037A0000E946D059093090280930802D4CFF0E047
:1037B000E85CFD4F84E0A9E1B2E001900D928A95AA
:1037C000E1F789E192E00E94CD0380931802C09056
:1037D0001D02D0901E02E0901F02F0902002809106
:1037E0000A0290910B02A0910C02B0910D02C81632
:1037F000D906EA06FB0611F410E09ECFC0920A0239
:10380000D0920B02E0920C02F0920D020E94A40BE7
:10381000182F8111F1CF0E946105C61AD70AE80A54
:10382000F90AC0922602D0922702E0922802F09272
:10383000290282CF1F920F920FB60F9211242F935D
:103840003F934F935F936F937F938F939F93AF9328
:10385000BF93CF93DF93EF93FF93D091E900DF7095
:103860008091EC00C82FC17080FDC0E81092E90083
:103870008091F000877F8093F00078940E94E80E9A
:103880001092E9008091F00088608093F000CD2BC9
:10389000CF70C093E900FF91EF91DF91CF91BF917D
:1038A000AF919F918F917F916F915F914F913F91D8
:1038B0002F910F900FBE0F901F9018951F920F928F
:1038C0000FB60F9211242F933F934F935F936F93F3
:1038D0007F938F939F93AF93BF93EF93FF938091C9
:1038E000E10082FF09C08091E20082FF05C0809163
:1038F000E1008B7F8093E1008091DA0080FF24C09B
:103900008091D80080FF20C08091DA008E7F809364
:10391000DA008091D90080FF9DC080E189BD82E1FD
:1039200089BD09B400FEFDCF81E080938E028091B5
:103930006902811109C00E94E4030E9485048091FC
:10394000E20084608093E2008091E10080FF17C074
:103950008091E20080FF13C08091E2008E7F80930F
:10396000E2008091E20080618093E2008091D800C3
:1039700080628093D80019BC85E080938E0280918C
:10398000E10084FF2BC08091E20084FF27C080E12A
:1039900089BD82E189BD89B5982F917080FFFBCFE9
:1039A0008091D8008F7D8093D8008091E1008F7E38
:1039B0008093E1008091E2008F7E8093E20080910D
:1039C000E20081608093E20080918F02882309F4F5
:1039D00047C084E080938E0280918E028091E10046
:1039E00083FF27C08091E20083FF23C08091E10024
:1039F000877F8093E10082E080938E0210928F0295
:103A00008091E1008E7F8093E1008091E2008E7FC3
:103A10008093E2008091E20080618093E20042E0C6
:103A200060E080E00E9453048091F0008860809301
:103A3000F000FF91EF91BF91AF919F918F917F9196
:103A40006F915F914F913F912F910F900FBE0F900B
:103A50001F90189519BC10928E021092690274CFB3
:103A60008091E30087FD93E090938E02B5CF789428
:103A70001F921FB61F9211248F939F93AF93BF93F2
:103A80008091630290916402A0916502B0916602F8
:103A90000196A11DB11D8093630290936402A093CF
:103AA0006502B0936602BF91AF919F918F911F9075
:103AB0001FBE1F9018951F921FB61F9211248F933F
:103AC0009F93AF93BF9380916202811113C0809145
:103AD000630290916402A0916502B09166024196E2
:103AE000A11DB11D8093630290936402A0936502AF
:103AF000B0936602BF91AF919F918F911F901FBEAF
:103B00001F901895CDB7DEB72B970FB6F894DEBF90
:103B10000FBECDBF85B7806885BF85B7806885BF7C
:103B200084B7877F84BF0FB6F894A8958091600012
:103B3000886180936000109260000FBE80E890E082
:103B40000FB6F89480936100909361000FBE81E9F5
:103B500096E090936B0180936A010E94E4030E94B7
:103B600085048091E20084608093E20078948091E3
:103B70008E028823A1F01091E9001F709091EC0053
:103B8000892F817090FD80E8182B1092E9008091B8
:103B9000E80083FD0E94E80E1F701093E90082E0A8
:103BA00084BD93E095BD9AEF97BD80936E0010920F
:103BB00026021092270210922802109229020E94D7
:103BC000A40B809318010E94A40B81110E94F12084
:103BD000809118018091180194E0811190E09093F8
:103BE000330284E0891B8093320284E90E949306A9
:103BF00086E60E94930687E90E94930686EC0E945F
:103C0000930601E611E047E6E42E41E0F42ED801E8
:103C10008D918D018F3F11F00E949306E016F10601
:103C2000B1F788E0E8E3F2E0DF01282F1D922A9542
:103C3000E9F7EAE2F2E0DF011D928A95E9F790E008
:103C400080E00E94C022873E9E4F09F45EC067EE6E
:103C50007EEF90E080E00E94E42260E082E090E06D
:103C60000E94C62260E083E090E00E94C62210928B
:103C700035021092340260E074E184E090E00E942A
:103C8000E42260E086E090E00E94C6226FEF87E0C9
:103C900090E00E94C62240E050E0BA0188E090E047
:103CA0000E94D82260E08DE090E00E94C62240E0B1
:103CB00050E0BA0188E190E00E94D82260E087E1FC
:103CC00090E00E94C62240E050E0BA018CE190E012
:103CD0000E94D82270E060E080E290E00E94E4223E
:103CE00040E050E0BA0188E190E00E94D82240E034
:103CF00050E0BA018FE090E00E94D82240E050E00E
:103D0000BA0183E190E00E94D82282E090E00E9414
:103D1000B8228093400284E090E00E94C0229093F9
:103D20006802809367020E94AB1AEFEFF6E721E08A
:103D3000E150F0402040E1F700C000000E94AB1AC3
:103D40000E94A40BE4E08111E0E0F0E0E85CFD4FAC
:103D5000808181FF08C06FEF7FEF90E080E00E94DC
:103D6000E4220E94410583E090E00E94B82290E0A6
:103D70000E94F0098CE090E00E94B822482F50E0A9
:103D800070E060E0409358025093590260935A02E9
:103D900070935B02882309F473C0843009F46EC009
:103DA000813009F070C082E0809357020E94A40B1A
:103DB000811102C00E94F42089E191E090935F029A
:103DC00080935E0228E1C22ED12C30E4A32E32E093
:103DD000B32E99E4892E92E0992E80918E0200E113
:103DE00012E1853009F488C00E94AB1A01E412E0A8
:103DF00088E3E82E82E0F82ED701F80191918D91A9
:103E00008E169F0609F482C09817C1F30E94A40B76
:103E1000282E712CD7016D907D01F80131908F0112
:103E2000361429F13624512C44244394832D8421C3
:103E3000B1F02220A1F05F82788691E0862D842166
:103E400009F490E099870E946D058160782F9B8727
:103E50008A874F81588569858B850E94EC18539419
:103E6000440CF6E05F12E2CFF80131976082739460
:103E700028E07212CFCF0E9461054CC081E094CF40
:103E80001092570293CF10925702109258028ECF81
:103E900080918E02843011F11092620240E40FB6DC
:103EA000F894A895C09260000FBE4093600083B75D
:103EB000817F846083BF83B7816083BF7894889556
:103EC00083B78E7F83BF0FB6F894A895809160006A
:103ED000886180936000109260000FBE80918D0217
:103EE000882351F00E94AB1AE8E3F2E0819181113E
:103EF000FFC0AE16BF06D1F780918E02853009F45F
:103F0000C7CF0E94B90E0E94C70B6ECF98137ECF09
:103F10000E9471190E94A40B86E0E1E5F2E0DE0147
:103F2000119601900D928A95E1F71092530210922A
:103F3000540210925502109256028B819C81892B5B
:103F400009F44AC080914F02909150020E9452059C
:103F50009C0190914A02992309F4E5C02131310571
:103F6000D8F19F3F19F09F5F90934A021B81112364
:103F700059F00E946B069FEF11160CF491E0899F97
:103F8000802D1124809353021C81112359F00E942B
:103F90006B069FEF11160CF491E0899F802D112480
:103FA00080935402309153023323B1F02091540294
:103FB000222391F045EB3403C0011124992309F425
:103FC00087C09093530245EB2403900111243323BF
:103FD00009F482C0309354028D819E81892B09F4AB
:103FE00049C080914D0290914E020E9452059C0161
:103FF00090914B02992309F491C021353105D0F1FC
:104000009F3F19F09F5F90934B021D81112359F040
:104010000E9449069FEF11160CF491E0899F802DB4
:104020001124809355021E81112359F00E944906E4
:104030009FEF11160CF491E0899F802D112480933D
:104040005602309155023323A9F0209156022223C3
:1040500089F045EB3403C0011124992309F440C0D1
:104060009093550245EB2403900111243323E1F191
:104070003093560246E050E0BE016F5F7F4F81E50E
:1040800092E00E94FA22892B61F480915302909170
:104090005402892B90915502892B90915602892BBD
:1040A00011F00E94220686E0FE013196A1E5B2E001
:1040B00001900D928A95E1F70E94C70B90914902F9
:1040C000891709F48ACE809349020E94610581CE46
:1040D00081E08093530277CF81E0809354027CCFBC
:1040E00081E080935502BECF81E080935602C2CF1B
:1040F00009BD19BD09B400FEFDCF8091D8008F7DA8
:104100008093D8008091E00082608093E0008091ED
:10411000E00081FDFCCF0E94B90EEECE2B303105C0
:1041200008F070CFA7CF232B09F01DCF55CF8EE11C
:104130004A9B02C08150E1F74A9BFECF08955A98EE
:1041400080E28A95F1F75A9A0895FC013BE03A958E
:10415000F1F798E020E080E031E040E14A95F1F7A6
:10416000880F4A9B02C08160232742E04A95F1F7FD
:10417000000040E14A95F1F7915079F790E19A9566
:10418000F1F799B132E03A95F1F7000040E14A9534
:10419000F1F792FB992790F992272081920F908353
:1041A0000895A1E0B0E0E7EDF0E20C945F221982FF
:1041B0008C017C01E60EF11C0E151F0541F481E017
:1041C0009981911180E02196E6E00C947B220E9477
:1041D0009720CE0101960E94A520F80181938F01BE
:1041E000EBCF529A5A9A089552985A9AEA9AE9E667
:1041F000F0E080818F7C808308956150770B91E09F
:1042000001C0990F6A95EAF720E031E0911108C0EA
:10421000222391F05A9A80E28A95F1F75A980895EC
:10422000492F482339F05A9A232740E24A95F1F75B
:104230009695ECCF5A98F9CF5A98EDCFFF920F93FD
:104240001F93CF93DF93EC018C01060F111DC01754
:10425000D10729F4CDB7DEB7E5E00C947C22F990C4
:104260000E949F2068E08F2D0E94FD20F0CF1F92BA
:104270000F920FB60F9211240F931F932F933F931A
:104280004F935F936F937F938F939F93AF93BF935E
:10429000EF93FF93CF93DF930F92CDB7DEB71982E1
:1042A0000E949720CE0101960E94A520082F069516
:1042B00006950695282F22952570902F9570290F29
:1042C000922F937026952695920F98279770898143
:1042D000982B09F05CC0043008F059C080E18A9541
:1042E000F1F75A9A529A82E08A95F1F700C05A98EB
:1042F00088E0089F80011124D801A050BF4F169676
:10430000ED91FC9117973097A9F060915B01709146
:104310005C0114962D913C911597260F371F11962D
:104320008D919C911297680F791F13964C9113975A
:104330008C910995F801E050FF4F6381662351F09D
:1043400020915B0130915C0184819581820F931FE4
:104350000E941E210E949F2080E18A95F1F75A98C1
:1043600052985A9A80E18A95F1F7F801E050FF4F90
:104370006081662351F020915B0130915C01818165
:104380009281820F931F0E94D1200E9497200F904C
:10439000DF91CF91FF91EF91BF91AF919F918F915D
:1043A0007F916F915F914F913F912F911F910F914D
:1043B0000F900FBE0F901F9018950F931F93CF93E0
:1043C000DF93EC0104970CF04CC0F894529A5A9881
:1043D00085E08A95F1F700009C2F969595708C2FBB
:1043E0008570980F892F83709695969523E0CC0F52
:1043F000DD1F2A95E1F7980F8E01092B0E949F205F
:1044000000C068E0802F0E94FD2080E18A95F1F7CE
:1044100052985A9A4A9B1EC087E090E04A991CC065
:10442000FE01E050FF4F63816623F9F020915B01AC
:1044300030915C0184819581820F931F0E94D1206D
:10444000811113C0529A5A9A7894DF91CF911F919B
:104450000F91089500C0DECF019729F4529A5A9A1D
:10446000789480E0F2CF00C0D9CF0E94972080E2FC
:104470008A95F1F75A98529A80E18A95F1F7C050DF
:10448000DF4F6881662351F020915B0130915C0120
:1044900089819A81820F931F0E941E210E949F2072
:1044A000789481E0D2CF2F923F924F925F926F9299
:1044B0007F928F929F92AF92BF92CF92DF92EF92B4
:1044C000FF920F931F93CF93DF93CDB7DEB7CA1B35
:1044D000DB0B0FB6F894DEBF0FBECDBF09942A8860
:1044E000398848885F846E847D848C849B84AA8408
:1044F000B984C884DF80EE80FD800C811B81AA8195
:10450000B981CE0FD11D0FB6F894DEBF0FBECDBF5F
:10451000ED01089597FB072E16F4009407D077FD60
:1045200009D00E94A42207FC05D03EF49095819505
:104530009F4F0895709561957F4F0895EE0FFF1F6F
:104540000590F491E02D0994AA1BBB1B51E107C013
:10455000AA1FBB1FA617B70710F0A61BB70B881F13
:10456000991F5A95A9F780959095BC01CD010895A2
:10457000F999FECF92BD81BDF89A992780B508952B
:10458000A8E1B0E042E050E00C94EC22262FF9992B
:10459000FECF92BD81BDF89A019700B4021639F0A2
:1045A0001FBA20BD0FB6F894FA9AF99A0FBE089573
:1045B0000396272F0E94C7220E94C622252F0E9401
:1045C000C722242F0C94C7220196272F0E94C722AE
:1045D0000C94C622DC01CB01FC01F999FECF06C088
:1045E000F2BDE1BDF89A319600B40D9241505040B1
:1045F000B8F70895FB01DC0104C08D91019080198A
:1046000021F441505040C8F7881B990B0895FB01D5
:10461000DC0102C001900D9241505040D8F708953E
:10462000F894FFCFC70FEF0F8711EF0F87112210FC
:104630004310871140114D111E122212D612DA12A8
:10464000DC12DE12E012E212551359134A13511311
:104650005D1361136513C0133514C81392139613B9
:10466000CC139A13D013DC13A6132E14AA13E01341
:10467000AE13E4130C14B213E8131314B813EE13AF
:10468000F6139E13D413A213D813BC13F2130214FF
:104690001C142C148C13C4133C14B614B614EF144D
:1046A000EF149615B0151D151D15B5153D164C16B4
:0246B0004C16A6
:1046B20000000001000000000000000401000000F2
:1046C2000405000000000000013E054D0B460B3FB3
:1046D2000B01818283E200E900EA00B500B600B76F
:1046E20000CD008301CC008A0192019401210223B2
:1046F2000224022502260227022A02B300B4006F16
:104702000070009F01CB019F02A0021802946697DD
:0A471200C6F4F5F6F7313300040198
:00000001FF
